:020000040000FA
:060000000A128A110C280F
:10000800FE00030EF1000A08F2000A128A11F5290F
:100018000A128A110F280A128A1106220A128A1154
:10002800A5000A128A1107220A128A11A600A7013E
:1000380083010A128A11E42800308A000408840A1D
:1000480082070034513475346534203463346134A4
:1000580072346134633474346534723420346434F3
:1000680065347334653461342034643465347334EE
:1000780070346C34653467346134723420346534D8
:100088006E34203450344F345234543441343F3475
:100098000034513475346534203463346134723437
:1000A80061346334743465347234203464346534B0
:1000B8007334653461342034643465347334703493
:1000C8006C346534673461347234203465346E348A
:1000D800203450344F345234543442343F34003492
:1000E80028343134293444346534733470346C34EE
:1000F8006534673461347234203463346134643471
:1001080065346E34613420346434653420346334A7
:1001180061347234613463347434653472346534F0
:1001280073340034513475346534203461346334A5
:10013800633469346F346E34203464346534733412
:1001480065346134203465346A3465346334753415
:100158007434613472343F340034283432342934EE
:10016800433461346D346234693461347234203418
:1001780050344F34523454344134003428343334F6
:100188002934433461346D346234693461347234EF
:10019800203450344F3452345434423400344334CD
:1001A8006134643465346E346134203464346534C5
:1001B80020347034723475346534623461340034F8
:1001C8000A128A11A9210A128A11213083120313F3
:1001D800A4007530A300A30BEF28A40BEF28F42884
:1001E800831203130C1EF928FA28E9282508260487
:1001F8000319FF2800291C2971300A128A11752158
:100208000A128A114F300A128A1175210A128A11AC
:100218008C300A128A1175210A128A119D300A122D
:100228008A1175210A128A1183120313A501A601E6
:1002380031302706031D2129222933290D30990041
:10024800AE300A128A1175210A128A1101308312FE
:100258000313A5000030A600A7010D309900323025
:100268002706031D3829392952290D3099000130F4
:100278000A128A1175210A128A1101308312031396
:10028800A5000030A600A701270803194C294D290D
:10029800482927088500A7010D3099003330270623
:1002A800031D57295829E9280D30990028300A12CA
:1002B8008A1175210A128A11013083120313A500CD
:1002C8000030A600A701270803196B296C296729A4
:1002D80027088600A7010D309900E9280A128A111B
:1002E8000C2883120313A200A001A101942907304E
:1002F800F9007D30F800F80B7F29F90B7F2983126C
:1003080003132008220784000A128A1120200A12E7
:100318008A1199000130A0070318A10A0030A1072B
:1003280022080A128A11D8210A128A117408831223
:1003380003132102031DA22973082002031CA52907
:10034800A6297B290D3099000800831603130F177F
:100358008F120F120F148316031789018801831651
:1003680003138501860183120313850186018B1708
:100378000B17831603138C16831203138C12831620
:1003880003131812181583160317871519308316C7
:10039800031399009A018312031398171813181658
:1003A8008316031398160800F6007608F5007508FA
:1003B800F700E2290130F5007508F707770884008F
:1003C8000A128A1120200A128A11003A031DED2907
:1003D800EE29DE2976087702F300F401F31BF40313
:1003E8000800831203138C1EFA29FB29FF291A0817
:1003F800F0007008A70072088A00710E8300FE0ED4
:080408007E0E090001340034EE
:04400E00C430FF3F7C
:00000001FF
